{
    "contractName": "Counter",
    "abi": [
        {
            "inputs": [],
            "stateMutability": "nonpayable",
            "type": "constructor"
        },
        {
            "inputs": [],
            "name": "getCount",
            "outputs": [
                {
                    "internalType": "uint256",
                    "name": "",
                    "type": "uint256"
                }
            ],
            "stateMutability": "view",
            "type": "function"
        },
        {
            "inputs": [],
            "name": "incrementCount",
            "outputs": [],
            "stateMutability": "nonpayable",
            "type": "function"
        }
    ],
    "bytecode": "6080604052348015600f57600080fd5b5060008055609e806100226000396000f3fe6080604052348015600f57600080fd5b506004361060325760003560e01c8063a87d942c146037578063e5071b8e14604f575b600080fd5b603d6057565b60408051918252519081900360200190f35b6055605d565b005b60005490565b60008054600101905556fea26469706673582212209c28e9524d7f4b6752ed263946c32370cd4bfd9df3cdf1677ef7f78b927f9a1164736f6c63430007000033",
    "sourcePath": "c:/Users/Rober/Documents/solidity-learn/Counter.sol",
    "compiler": {
        "name": "solc",
        "version": "0.7.0+commit.9e61f92b"
    },
    "functionHashes": {
        "getCount()": "a87d942c",
        "incrementCount()": "e5071b8e"
    },
    "gasEstimates": {
        "creation": {
            "codeDepositCost": "31600",
            "executionCost": "5087",
            "totalCost": "36687"
        },
        "external": {
            "getCount()": "976",
            "incrementCount()": "20959"
        }
    }
}