{
  "contractName": "myContract",
  "abi": [
    {
      "constant": true,
      "inputs": [
        {
          "internalType": "uint256",
          "name": "",
          "type": "uint256"
        }
      ],
      "name": "books",
      "outputs": [
        {
          "internalType": "string",
          "name": "",
          "type": "string"
        }
      ],
      "payable": false,
      "stateMutability": "view",
      "type": "function"
    },
    {
      "constant": true,
      "inputs": [],
      "name": "myAddress",
      "outputs": [
        {
          "internalType": "address",
          "name": "",
          "type": "address"
        }
      ],
      "payable": false,
      "stateMutability": "view",
      "type": "function"
    },
    {
      "constant": true,
      "inputs": [
        {
          "internalType": "address",
          "name": "",
          "type": "address"
        },
        {
          "internalType": "uint256",
          "name": "",
          "type": "uint256"
        }
      ],
      "name": "myBooks",
      "outputs": [
        {
          "internalType": "string",
          "name": "title",
          "type": "string"
        },
        {
          "internalType": "string",
          "name": "author",
          "type": "string"
        }
      ],
      "payable": false,
      "stateMutability": "view",
      "type": "function"
    },
    {
      "constant": true,
      "inputs": [],
      "name": "myInt",
      "outputs": [
        {
          "internalType": "int256",
          "name": "",
          "type": "int256"
        }
      ],
      "payable": false,
      "stateMutability": "view",
      "type": "function"
    },
    {
      "constant": true,
      "inputs": [],
      "name": "myPerson",
      "outputs": [
        {
          "internalType": "uint256",
          "name": "myUint",
          "type": "uint256"
        },
        {
          "internalType": "string",
          "name": "myName",
          "type": "string"
        }
      ],
      "payable": false,
      "stateMutability": "view",
      "type": "function"
    },
    {
      "constant": true,
      "inputs": [],
      "name": "myString",
      "outputs": [
        {
          "internalType": "string",
          "name": "",
          "type": "string"
        }
      ],
      "payable": false,
      "stateMutability": "view",
      "type": "function"
    },
    {
      "constant": true,
      "inputs": [],
      "name": "myUint",
      "outputs": [
        {
          "internalType": "uint256",
          "name": "",
          "type": "uint256"
        }
      ],
      "payable": false,
      "stateMutability": "view",
      "type": "function"
    },
    {
      "constant": true,
      "inputs": [],
      "name": "myUint256",
      "outputs": [
        {
          "internalType": "uint256",
          "name": "",
          "type": "uint256"
        }
      ],
      "payable": false,
      "stateMutability": "view",
      "type": "function"
    },
    {
      "constant": true,
      "inputs": [
        {
          "internalType": "uint256",
          "name": "",
          "type": "uint256"
        }
      ],
      "name": "numbers",
      "outputs": [
        {
          "internalType": "uint256",
          "name": "",
          "type": "uint256"
        }
      ],
      "payable": false,
      "stateMutability": "view",
      "type": "function"
    },
    {
      "constant": true,
      "inputs": [
        {
          "internalType": "uint256",
          "name": "",
          "type": "uint256"
        }
      ],
      "name": "values",
      "outputs": [
        {
          "internalType": "string",
          "name": "",
          "type": "string"
        }
      ],
      "payable": false,
      "stateMutability": "view",
      "type": "function"
    },
    {
      "constant": true,
      "inputs": [
        {
          "internalType": "uint256",
          "name": "_number",
          "type": "uint256"
        }
      ],
      "name": "isEven",
      "outputs": [
        {
          "internalType": "bool",
          "name": "",
          "type": "bool"
        }
      ],
      "payable": false,
      "stateMutability": "pure",
      "type": "function"
    },
    {
      "constant": true,
      "inputs": [],
      "name": "countEvenNum",
      "outputs": [
        {
          "internalType": "uint256",
          "name": "",
          "type": "uint256"
        }
      ],
      "payable": false,
      "stateMutability": "view",
      "type": "function"
    },
    {
      "constant": false,
      "inputs": [
        {
          "internalType": "uint256",
          "name": "_id",
          "type": "uint256"
        },
        {
          "internalType": "string",
          "name": "_title",
          "type": "string"
        },
        {
          "internalType": "string",
          "name": "_author",
          "type": "string"
        }
      ],
      "name": "addMyBook",
      "outputs": [],
      "payable": false,
      "stateMutability": "nonpayable",
      "type": "function"
    },
    {
      "constant": true,
      "inputs": [],
      "name": "getValue",
      "outputs": [
        {
          "internalType": "uint256",
          "name": "",
          "type": "uint256"
        }
      ],
      "payable": false,
      "stateMutability": "pure",
      "type": "function"
    },
    {
      "constant": false,
      "inputs": [
        {
          "internalType": "string",
          "name": "_value",
          "type": "string"
        }
      ],
      "name": "addValue",
      "outputs": [],
      "payable": false,
      "stateMutability": "nonpayable",
      "type": "function"
    },
    {
      "constant": true,
      "inputs": [],
      "name": "valueCount",
      "outputs": [
        {
          "internalType": "uint256",
          "name": "",
          "type": "uint256"
        }
      ],
      "payable": false,
      "stateMutability": "view",
      "type": "function"
    }
  ],
  "bytecode": "0x608060405260016000556001805560016002556040518060400160405280600b81526020017f68656c6c6f20776f726c64000000000000000000000000000000000000000000815250600390805190602001906200005f929190620001b8565b5073dd80dc4c59185205d9c63b802ca4a3e18ddae82f600460006101000a81548173ffffffffffffffffffffffffffffffffffffffff021916908373ffffffffffffffffffffffffffffffffffffffff160217905550604051806101200160405280600160ff168152602001600260ff168152602001600360ff168152602001600460ff168152602001600560ff168152602001600660ff168152602001600760ff168152602001600860ff168152602001600a60ff1681525060089060096200012b9291906200023f565b506040518060400160405280600181526020016040518060400160405280600281526020017f48690000000000000000000000000000000000000000000000000000000000008152508152506009600082015181600001556020820151816001019080519060200190620001a192919062000296565b505050348015620001b157600080fd5b5062000345565b828054600181600116156101000203166002900490600052602060002090601f016020900481019282601f10620001fb57805160ff19168380011785556200022c565b828001600101855582156200022c579182015b828111156200022b5782518255916020019190600101906200020e565b5b5090506200023b91906200031d565b5090565b82805482825590600052602060002090810192821562000283579160200282015b8281111562000282578251829060ff1690559160200191906001019062000260565b5b5090506200029291906200031d565b5090565b828054600181600116156101000203166002900490600052602060002090601f016020900481019282601f10620002d957805160ff19168380011785556200030a565b828001600101855582156200030a579182015b8281111562000309578251825591602001919060010190620002ec565b5b5090506200031991906200031d565b5090565b6200034291905b808211156200033e57600081600090555060010162000324565b5090565b90565b610f7d80620003556000396000f3fe608060405234801561001057600080fd5b50600436106101005760003560e01c80633a5fbaaa116100975780635e383d21116100665780635e383d21146106825780636874404614610729578063a7dbce1c146107d0578063d39fa233146107ee57610100565b80633a5fbaaa1461035e578063492bfa1814610419578063493ec7071461049c57806357e83311146105f857610100565b806327d3553f116100d357806327d3553f146101a95780632a2e1320146102dc5780632cb777a614610322578063376808481461034057610100565b806306540f7e14610105578063209652551461012357806326b85ee11461014157806326eb4dbb1461018b575b600080fd5b61010d610830565b6040518082815260200191505060405180910390f35b61012b610836565b6040518082815260200191505060405180910390f35b610149610844565b604051808273ffffffffffffffffffffffffffffffffffffffff1673ffffffffffffffffffffffffffffffffffffffff16815260200191505060405180910390f35b61019361086a565b6040518082815260200191505060405180910390f35b6101f5600480360360408110156101bf57600080fd5b81019080803573ffffffffffffffffffffffffffffffffffffffff16906020019092919080359060200190929190505050610877565b604051808060200180602001838103835285818151815260200191508051906020019080838360005b8381101561023957808201518184015260208101905061021e565b50505050905090810190601f1680156102665780820380516001836020036101000a031916815260200191505b50838103825284818151815260200191508051906020019080838360005b8381101561029f578082015181840152602081019050610284565b50505050905090810190601f1680156102cc5780820380516001836020036101000a031916815260200191505b5094505050505060405180910390f35b610308600480360360208110156102f257600080fd5b81019080803590602001909291905050506109d8565b604051808215151515815260200191505060405180910390f35b61032a6109ff565b6040518082815260200191505060405180910390f35b610348610a05565b6040518082815260200191505060405180910390f35b6104176004803603602081101561037457600080fd5b810190808035906020019064010000000081111561039157600080fd5b8201836020820111156103a357600080fd5b803590602001918460018302840111640100000000831117156103c557600080fd5b91908080601f016020809104026020016040519081016040528093929190818152602001838380828437600081840152601f19601f820116905080830192505050505050509192919290505050610a62565b005b610421610aa4565b6040518080602001828103825283818151815260200191508051906020019080838360005b83811015610461578082015181840152602081019050610446565b50505050905090810190601f16801561048e5780820380516001836020036101000a031916815260200191505b509250505060405180910390f35b6105f6600480360360608110156104b257600080fd5b8101908080359060200190929190803590602001906401000000008111156104d957600080fd5b8201836020820111156104eb57600080fd5b8035906020019184600183028401116401000000008311171561050d57600080fd5b91908080601f016020809104026020016040519081016040528093929190818152602001838380828437600081840152601f19601f8201169050808301925050505050505091929192908035906020019064010000000081111561057057600080fd5b82018360208201111561058257600080fd5b803590602001918460018302840111640100000000831117156105a457600080fd5b91908080601f016020809104026020016040519081016040528093929190818152602001838380828437600081840152601f19601f820116905080830192505050505050509192919290505050610b42565b005b610600610be9565b6040518083815260200180602001828103825283818151815260200191508051906020019080838360005b8381101561064657808201518184015260208101905061062b565b50505050905090810190601f1680156106735780820380516001836020036101000a031916815260200191505b50935050505060405180910390f35b6106ae6004803603602081101561069857600080fd5b8101908080359060200190929190505050610c93565b6040518080602001828103825283818151815260200191508051906020019080838360005b838110156106ee5780820151818401526020810190506106d3565b50505050905090810190601f16801561071b5780820380516001836020036101000a031916815260200191505b509250505060405180910390f35b6107556004803603602081101561073f57600080fd5b8101908080359060200190929190505050610d4c565b6040518080602001828103825283818151815260200191508051906020019080838360005b8381101561079557808201518184015260208101905061077a565b50505050905090810190601f1680156107c25780820380516001836020036101000a031916815260200191505b509250505060405180910390f35b6107d8610dfc565b6040518082815260200191505060405180910390f35b61081a6004803603602081101561080457600080fd5b8101908080359060200190929190505050610e02565b6040518082815260200191505060405180910390f35b60015481565b600080600190508091505090565b600460009054906101000a900473ffffffffffffffffffffffffffffffffffffffff1681565b6000600580549050905090565b600760205281600052604060002060205280600052604060002060009150915050806000018054600181600116156101000203166002900480601f0160208091040260200160405190810160405280929190818152602001828054600181600116156101000203166002900480156109305780601f1061090557610100808354040283529160200191610930565b820191906000526020600020905b81548152906001019060200180831161091357829003601f168201915b505050505090806001018054600181600116156101000203166002900480601f0160208091040260200160405190810160405280929190818152602001828054600181600116156101000203166002900480156109ce5780601f106109a3576101008083540402835291602001916109ce565b820191906000526020600020905b8154815290600101906020018083116109b157829003601f168201915b5050505050905082565b600080600283816109e557fe5b0614156109f557600190506109fa565b600090505b919050565b60005481565b6000806000905060008090505b600880549050811015610a5a57610a3f60088281548110610a2f57fe5b90600052602060002001546109d8565b15610a4d5781806001019250505b8080600101915050610a12565b508091505090565b6005819080600181540180825580915050906001820390600052602060002001600090919290919091509080519060200190610a9f929190610e23565b505050565b60038054600181600116156101000203166002900480601f016020809104026020016040519081016040528092919081815260200182805460018160011615610100020316600290048015610b3a5780601f10610b0f57610100808354040283529160200191610b3a565b820191906000526020600020905b815481529060010190602001808311610b1d57829003601f168201915b505050505081565b604051806040016040528083815260200182815250600760003373ffffffffffffffffffffffffffffffffffffffff1673ffffffffffffffffffffffffffffffffffffffff16815260200190815260200160002060008581526020019081526020016000206000820151816000019080519060200190610bc3929190610ea3565b506020820151816001019080519060200190610be0929190610ea3565b50905050505050565b6009806000015490806001018054600181600116156101000203166002900480601f016020809104026020016040519081016040528092919081815260200182805460018160011615610100020316600290048015610c895780601f10610c5e57610100808354040283529160200191610c89565b820191906000526020600020905b815481529060010190602001808311610c6c57829003601f168201915b5050505050905082565b60058181548110610ca057fe5b906000526020600020016000915090508054600181600116156101000203166002900480601f016020809104026020016040519081016040528092919081815260200182805460018160011615610100020316600290048015610d445780601f10610d1957610100808354040283529160200191610d44565b820191906000526020600020905b815481529060010190602001808311610d2757829003601f168201915b505050505081565b60066020528060005260406000206000915090508054600181600116156101000203166002900480601f016020809104026020016040519081016040528092919081815260200182805460018160011615610100020316600290048015610df45780601f10610dc957610100808354040283529160200191610df4565b820191906000526020600020905b815481529060010190602001808311610dd757829003601f168201915b505050505081565b60025481565b60088181548110610e0f57fe5b906000526020600020016000915090505481565b828054600181600116156101000203166002900490600052602060002090601f016020900481019282601f10610e6457805160ff1916838001178555610e92565b82800160010185558215610e92579182015b82811115610e91578251825591602001919060010190610e76565b5b509050610e9f9190610f23565b5090565b828054600181600116156101000203166002900490600052602060002090601f016020900481019282601f10610ee457805160ff1916838001178555610f12565b82800160010185558215610f12579182015b82811115610f11578251825591602001919060010190610ef6565b5b509050610f1f9190610f23565b5090565b610f4591905b80821115610f41576000816000905550600101610f29565b5090565b9056fea265627a7a72315820bdd03f1f28fd58747de8c69292689d194c44b315e42b3cbc06abcedd2b7238d964736f6c63430005100032",
  "source": "//SPDX-License-Identifier: 123\r\n\r\npragma solidity >=0.4.22 <0.9.0;\r\n\r\ncontract myContract {\r\n    int public myInt = 1;\r\n    uint public myUint = 1;\r\n    uint256 public myUint256 = 1;\r\n\r\n    string public myString = \"hello world\";\r\n\r\n    address public myAddress = 0xDd80dC4C59185205d9C63b802ca4A3e18ddaE82F;\r\n\r\n    string[] public values;\r\n\r\n    struct MyPerson {\r\n        uint myUint;\r\n        string myName;\r\n    }\r\n\r\n    mapping(uint => string) public books;\r\n    mapping(address => mapping(uint => Book)) public myBooks;\r\n\r\n    uint[] public numbers = [1,2,3,4,5,6,7,8,10];\r\n\r\n\r\n    struct Book {\r\n        string title;\r\n        string author;\r\n    }\r\n\r\n    function isEven(uint _number) public pure returns(bool) {\r\n        if(_number % 2 == 0) {\r\n            return  true;\r\n        } else {\r\n            return false;\r\n        }\r\n    }\r\n\r\n    function countEvenNum() public view returns(uint) {\r\n        uint count = 0;\r\n\r\n        for(uint i = 0; i < numbers.length; i ++) {\r\n            if(isEven(numbers[i])) {\r\n                count++;\r\n            }\r\n        }\r\n            return count;\r\n    }\r\n\r\n\r\n\r\n\r\n\r\n\r\n    function addMyBook(uint _id, string memory _title, string memory _author) public {\r\n        myBooks[msg.sender][_id] = Book(_title, _author);\r\n    }\r\n\r\n\r\n\r\n    MyPerson public myPerson = MyPerson(1, \"Hi\");\r\n\r\n    function getValue() public pure returns(uint) {\r\n        uint value = 1;\r\n        return value;\r\n    }\r\n\r\n    function addValue(string memory _value) public {\r\n        values.push(_value);\r\n    }\r\n\r\n    function valueCount() public view returns (uint) {\r\n        return values.length;\r\n    }\r\n\r\n}",
  "sourcePath": "C:/Users/Rober/Documents/solidity-learn/contracts/myContract.sol",
  "compiler": {
    "name": "solc",
    "version": "0.5.16+commit.9c3226ce.Emscripten.clang"
  },
  "schemaVersion": "3.4.1",
  "updatedAt": "2021-05-14T17:32:12.598Z",
  "devdoc": {
    "methods": {}
  },
  "userdoc": {
    "methods": {}
  }
}